{
  "_format": "hh-sol-artifact-1",
  "contractName": "UserReputation",
  "sourceName": "contracts/UserReputation.sol",
  "abi": [
    {
      "inputs": [],
      "stateMutability": "nonpayable",
      "type": "constructor"
    },
    {
      "anonymous": false,
      "inputs": [
        {
          "indexed": true,
          "internalType": "address",
          "name": "updater",
          "type": "address"
        },
        {
          "indexed": false,
          "internalType": "bool",
          "name": "allowed",
          "type": "bool"
        }
      ],
      "name": "AuthorizedUpdaterChanged",
      "type": "event"
    },
    {
      "anonymous": false,
      "inputs": [
        {
          "indexed": true,
          "internalType": "address",
          "name": "user",
          "type": "address"
        },
        {
          "indexed": false,
          "internalType": "uint256",
          "name": "reputation",
          "type": "uint256"
        },
        {
          "indexed": false,
          "internalType": "uint256",
          "name": "noShowCount",
          "type": "uint256"
        }
      ],
      "name": "NoShowRecorded",
      "type": "event"
    },
    {
      "anonymous": false,
      "inputs": [
        {
          "indexed": true,
          "internalType": "address",
          "name": "user",
          "type": "address"
        },
        {
          "indexed": false,
          "internalType": "string",
          "name": "name",
          "type": "string"
        }
      ],
      "name": "UserRegistered",
      "type": "event"
    },
    {
      "anonymous": false,
      "inputs": [
        {
          "indexed": true,
          "internalType": "address",
          "name": "user",
          "type": "address"
        },
        {
          "indexed": false,
          "internalType": "uint256",
          "name": "reputation",
          "type": "uint256"
        }
      ],
      "name": "UserRewarded",
      "type": "event"
    },
    {
      "inputs": [],
      "name": "admin",
      "outputs": [
        {
          "internalType": "address",
          "name": "",
          "type": "address"
        }
      ],
      "stateMutability": "view",
      "type": "function"
    },
    {
      "inputs": [
        {
          "internalType": "address",
          "name": "",
          "type": "address"
        }
      ],
      "name": "authorizedUpdaters",
      "outputs": [
        {
          "internalType": "bool",
          "name": "",
          "type": "bool"
        }
      ],
      "stateMutability": "view",
      "type": "function"
    },
    {
      "inputs": [
        {
          "internalType": "address",
          "name": "_user",
          "type": "address"
        }
      ],
      "name": "getUser",
      "outputs": [
        {
          "internalType": "string",
          "name": "name",
          "type": "string"
        },
        {
          "internalType": "uint256",
          "name": "reputation",
          "type": "uint256"
        },
        {
          "internalType": "uint256",
          "name": "noShowCount",
          "type": "uint256"
        },
        {
          "internalType": "bool",
          "name": "isRegistered",
          "type": "bool"
        }
      ],
      "stateMutability": "view",
      "type": "function"
    },
    {
      "inputs": [
        {
          "internalType": "address",
          "name": "_user",
          "type": "address"
        }
      ],
      "name": "recordNoShow",
      "outputs": [],
      "stateMutability": "nonpayable",
      "type": "function"
    },
    {
      "inputs": [
        {
          "internalType": "string",
          "name": "_name",
          "type": "string"
        }
      ],
      "name": "register",
      "outputs": [],
      "stateMutability": "nonpayable",
      "type": "function"
    },
    {
      "inputs": [
        {
          "internalType": "address",
          "name": "_user",
          "type": "address"
        }
      ],
      "name": "rewardUser",
      "outputs": [],
      "stateMutability": "nonpayable",
      "type": "function"
    },
    {
      "inputs": [
        {
          "internalType": "address",
          "name": "_updater",
          "type": "address"
        },
        {
          "internalType": "bool",
          "name": "_allowed",
          "type": "bool"
        }
      ],
      "name": "setAuthorizedUpdater",
      "outputs": [],
      "stateMutability": "nonpayable",
      "type": "function"
    },
    {
      "inputs": [
        {
          "internalType": "address",
          "name": "",
          "type": "address"
        }
      ],
      "name": "users",
      "outputs": [
        {
          "internalType": "string",
          "name": "name",
          "type": "string"
        },
        {
          "internalType": "uint256",
          "name": "reputation",
          "type": "uint256"
        },
        {
          "internalType": "uint256",
          "name": "noShowCount",
          "type": "uint256"
        },
        {
          "internalType": "bool",
          "name": "isRegistered",
          "type": "bool"
        }
      ],
      "stateMutability": "view",
      "type": "function"
    }
  ],
  "bytecode": "0x6080604052348015600f57600080fd5b50336000806101000a81548173ffffffffffffffffffffffffffffffffffffffff021916908373ffffffffffffffffffffffffffffffffffffffff1602179055506117068061005f6000396000f3fe608060405234801561001057600080fd5b50600436106100885760003560e01c8063a6afd7db1161005b578063a6afd7db14610128578063a87430ba14610144578063f2c298be14610177578063f851a4401461019357610088565b80632e1780321461008d5780636f77926b146100a95780638ff29cfe146100dc57806399fc65d41461010c575b600080fd5b6100a760048036038101906100a29190610dcc565b6101b1565b005b6100c360048036038101906100be9190610dcc565b610544565b6040516100d39493929190610ebd565b60405180910390f35b6100f660048036038101906100f19190610dcc565b61067d565b6040516101039190610f09565b60405180910390f35b61012660048036038101906101219190610f50565b61069d565b005b610142600480360381019061013d9190610dcc565b610843565b005b61015e60048036038101906101599190610dcc565b610aa1565b60405161016e9493929190610ebd565b60405180910390f35b610191600480360381019061018c9190610ff5565b610b66565b005b61019b610d40565b6040516101a89190611051565b60405180910390f35b60008054906101000a900473ffffffffffffffffffffffffffffffffffffffff1673ffffffffffffffffffffffffffffffffffffffff163373ffffffffffffffffffffffffffffffffffffffff1614806102545750600260003373ffffffffffffffffffffffffffffffffffffffff1673ffffffffffffffffffffffffffffffffffffffff16815260200190815260200160002060009054906101000a900460ff165b610293576040517f08c379a000000000000000000000000000000000000000000000000000000000815260040161028a906110b8565b60405180910390fd5b600160008273ffffffffffffffffffffffffffffffffffffffff1673ffffffffffffffffffffffffffffffffffffffff16815260200190815260200160002060030160009054906101000a900460ff16610322576040517f08c379a000000000000000000000000000000000000000000000000000000000815260040161031990611124565b60405180910390fd5b60018060008373ffffffffffffffffffffffffffffffffffffffff1673ffffffffffffffffffffffffffffffffffffffff16815260200190815260200160002060020160008282546103749190611173565b92505081905550600a600160008373ffffffffffffffffffffffffffffffffffffffff1673ffffffffffffffffffffffffffffffffffffffff168152602001908152602001600020600101541061042457600a600160008373ffffffffffffffffffffffffffffffffffffffff1673ffffffffffffffffffffffffffffffffffffffff168152602001908152602001600020600101600082825461041891906111a7565b9250508190555061046d565b6000600160008373ffffffffffffffffffffffffffffffffffffffff1673ffffffffffffffffffffffffffffffffffffffff168152602001908152602001600020600101819055505b8073ffffffffffffffffffffffffffffffffffffffff167f9bd40d4e1a988cd47255bf356b0d47a71065795294b26c7c3da00b5de5c5f238600160008473ffffffffffffffffffffffffffffffffffffffff1673ffffffffffffffffffffffffffffffffffffffff16815260200190815260200160002060010154600160008573ffffffffffffffffffffffffffffffffffffffff1673ffffffffffffffffffffffffffffffffffffffff168152602001908152602001600020600201546040516105399291906111db565b60405180910390a250565b6060600080600080600160008773ffffffffffffffffffffffffffffffffffffffff1673ffffffffffffffffffffffffffffffffffffffff1681526020019081526020016000206040518060800160405290816000820180546105a690611233565b80601f01602080910402602001604051908101604052809291908181526020018280546105d290611233565b801561061f5780601f106105f45761010080835404028352916020019161061f565b820191906000526020600020905b81548152906001019060200180831161060257829003601f168201915b5050505050815260200160018201548152602001600282015481526020016003820160009054906101000a900460ff161515151581525050905080600001518160200151826040015183606001519450945094509450509193509193565b60026020528060005260406000206000915054906101000a900460ff1681565b60008054906101000a900473ffffffffffffffffffffffffffffffffffffffff1673ffffffffffffffffffffffffffffffffffffffff163373ffffffffffffffffffffffffffffffffffffffff161461072b576040517f08c379a0000000000000000000000000000000000000000000000000000000008152600401610722906112b0565b60405180910390fd5b600073ffffffffffffffffffffffffffffffffffffffff168273ffffffffffffffffffffffffffffffffffffffff160361079a576040517f08c379a00000000000000000000000000000000000000000000000000000000081526004016107919061131c565b60405180910390fd5b80600260008473ffffffffffffffffffffffffffffffffffffffff1673ffffffffffffffffffffffffffffffffffffffff16815260200190815260200160002060006101000a81548160ff0219169083151502179055508173ffffffffffffffffffffffffffffffffffffffff167fe80976c6c2c07678ce9937c9c4c043ace71abf610ddf891b568b77d7904f34f3826040516108379190610f09565b60405180910390a25050565b60008054906101000a900473ffffffffffffffffffffffffffffffffffffffff1673ffffffffffffffffffffffffffffffffffffffff163373ffffffffffffffffffffffffffffffffffffffff1614806108e65750600260003373ffffffffffffffffffffffffffffffffffffffff1673ffffffffffffffffffffffffffffffffffffffff16815260200190815260200160002060009054906101000a900460ff165b610925576040517f08c379a000000000000000000000000000000000000000000000000000000000815260040161091c906110b8565b60405180910390fd5b600160008273ffffffffffffffffffffffffffffffffffffffff1673ffffffffffffffffffffffffffffffffffffffff16815260200190815260200160002060030160009054906101000a900460ff166109b4576040517f08c379a00000000000000000000000000000000000000000000000000000000081526004016109ab90611124565b60405180910390fd5b6005600160008373ffffffffffffffffffffffffffffffffffffffff1673ffffffffffffffffffffffffffffffffffffffff1681526020019081526020016000206001016000828254610a079190611173565b925050819055508073ffffffffffffffffffffffffffffffffffffffff167fe366ef68d2c0620e9e4c5074fd7ad0ce6739b65287f9c2d09b7d002da556879b600160008473ffffffffffffffffffffffffffffffffffffffff1673ffffffffffffffffffffffffffffffffffffffff16815260200190815260200160002060010154604051610a96919061133c565b60405180910390a250565b6001602052806000526040600020600091509050806000018054610ac490611233565b80601f0160208091040260200160405190810160405280929190818152602001828054610af090611233565b8015610b3d5780601f10610b1257610100808354040283529160200191610b3d565b820191906000526020600020905b815481529060010190602001808311610b2057829003601f168201915b5050505050908060010154908060020154908060030160009054906101000a900460ff16905084565b600160003373ffffffffffffffffffffffffffffffffffffffff1673ffffffffffffffffffffffffffffffffffffffff16815260200190815260200160002060030160009054906101000a900460ff1615610bf6576040517f08c379a0000000000000000000000000000000000000000000000000000000008152600401610bed906113a3565b60405180910390fd5b604051806080016040528083838080601f016020809104026020016040519081016040528093929190818152602001838380828437600081840152601f19601f820116905080830192505050505050508152602001606481526020016000815260200160011515815250600160003373ffffffffffffffffffffffffffffffffffffffff1673ffffffffffffffffffffffffffffffffffffffff1681526020019081526020016000206000820151816000019081610cb4919061159e565b50602082015181600101556040820151816002015560608201518160030160006101000a81548160ff0219169083151502179055509050503373ffffffffffffffffffffffffffffffffffffffff167f48cac28ad4dc618e15f4c2dd5e97751182f166de97b25618318b2112aa951a2f8383604051610d349291906116ac565b60405180910390a25050565b60008054906101000a900473ffffffffffffffffffffffffffffffffffffffff1681565b600080fd5b600080fd5b600073ffffffffffffffffffffffffffffffffffffffff82169050919050565b6000610d9982610d6e565b9050919050565b610da981610d8e565b8114610db457600080fd5b50565b600081359050610dc681610da0565b92915050565b600060208284031215610de257610de1610d64565b5b6000610df084828501610db7565b91505092915050565b600081519050919050565b600082825260208201905092915050565b60005b83811015610e33578082015181840152602081019050610e18565b60008484015250505050565b6000601f19601f8301169050919050565b6000610e5b82610df9565b610e658185610e04565b9350610e75818560208601610e15565b610e7e81610e3f565b840191505092915050565b6000819050919050565b610e9c81610e89565b82525050565b60008115159050919050565b610eb781610ea2565b82525050565b60006080820190508181036000830152610ed78187610e50565b9050610ee66020830186610e93565b610ef36040830185610e93565b610f006060830184610eae565b95945050505050565b6000602082019050610f1e6000830184610eae565b92915050565b610f2d81610ea2565b8114610f3857600080fd5b50565b600081359050610f4a81610f24565b92915050565b60008060408385031215610f6757610f66610d64565b5b6000610f7585828601610db7565b9250506020610f8685828601610f3b565b9150509250929050565b600080fd5b600080fd5b600080fd5b60008083601f840112610fb557610fb4610f90565b5b8235905067ffffffffffffffff811115610fd257610fd1610f95565b5b602083019150836001820283011115610fee57610fed610f9a565b5b9250929050565b6000806020838503121561100c5761100b610d64565b5b600083013567ffffffffffffffff81111561102a57611029610d69565b5b61103685828601610f9f565b92509250509250929050565b61104b81610d8e565b82525050565b60006020820190506110666000830184611042565b92915050565b7f6e6f7420616c6c6f776564000000000000000000000000000000000000000000600082015250565b60006110a2600b83610e04565b91506110ad8261106c565b602082019050919050565b600060208201905081810360008301526110d181611095565b9050919050565b7f75736572206e6f74207265676973746572656400000000000000000000000000600082015250565b600061110e601383610e04565b9150611119826110d8565b602082019050919050565b6000602082019050818103600083015261113d81611101565b9050919050565b7f4e487b7100000000000000000000000000000000000000000000000000000000600052601160045260246000fd5b600061117e82610e89565b915061118983610e89565b92508282019050808211156111a1576111a0611144565b5b92915050565b60006111b282610e89565b91506111bd83610e89565b92508282039050818111156111d5576111d4611144565b5b92915050565b60006040820190506111f06000830185610e93565b6111fd6020830184610e93565b9392505050565b7f4e487b7100000000000000000000000000000000000000000000000000000000600052602260045260246000fd5b6000600282049050600182168061124b57607f821691505b60208210810361125e5761125d611204565b5b50919050565b7f6e6f742061646d696e0000000000000000000000000000000000000000000000600082015250565b600061129a600983610e04565b91506112a582611264565b602082019050919050565b600060208201905081810360008301526112c98161128d565b9050919050565b7f696e76616c696420757064617465720000000000000000000000000000000000600082015250565b6000611306600f83610e04565b9150611311826112d0565b602082019050919050565b60006020820190508181036000830152611335816112f9565b9050919050565b60006020820190506113516000830184610e93565b92915050565b7f616c726561647920726567697374657265640000000000000000000000000000600082015250565b600061138d601283610e04565b915061139882611357565b602082019050919050565b600060208201905081810360008301526113bc81611380565b9050919050565b7f4e487b7100000000000000000000000000000000000000000000000000000000600052604160045260246000fd5b60008190508160005260206000209050919050565b60006020601f8301049050919050565b600082821b905092915050565b6000600883026114547fffffffffffffffffffffffffffffffffffffffffffffffffffffffffffffffff82611417565b61145e8683611417565b95508019841693508086168417925050509392505050565b6000819050919050565b600061149b61149661149184610e89565b611476565b610e89565b9050919050565b6000819050919050565b6114b583611480565b6114c96114c1826114a2565b848454611424565b825550505050565b600090565b6114de6114d1565b6114e98184846114ac565b505050565b5b8181101561150d576115026000826114d6565b6001810190506114ef565b5050565b601f82111561155257611523816113f2565b61152c84611407565b8101602085101561153b578190505b61154f61154785611407565b8301826114ee565b50505b505050565b600082821c905092915050565b600061157560001984600802611557565b1980831691505092915050565b600061158e8383611564565b9150826002028217905092915050565b6115a782610df9565b67ffffffffffffffff8111156115c0576115bf6113c3565b5b6115ca8254611233565b6115d5828285611511565b600060209050601f83116001811461160857600084156115f6578287015190505b6116008582611582565b865550611668565b601f198416611616866113f2565b60005b8281101561163e57848901518255600182019150602085019450602081019050611619565b8683101561165b5784890151611657601f891682611564565b8355505b6001600288020188555050505b505050505050565b82818337600083830152505050565b600061168b8385610e04565b9350611698838584611670565b6116a183610e3f565b840190509392505050565b600060208201905081810360008301526116c781848661167f565b9050939250505056fea26469706673582212207708e053f2274953cbb3c5b586ab73d879cbf2aa23353c5b14cdc29665ca68e364736f6c634300081c0033",
  "linkReferences": {},
  "deployedLinkReferences": {}
}